:1000000004308A00DC2C00000A108A100A118207D2
:1000100028340C34013406340C3B6F36F430EA32A9
:10002000A0123117323300008A30EE3375366F106C
:10003000A5192E19660039308400831300080319AE
:100040002F280130F800F701F70B2428F80B23289C
:100050004A30F700F70B2A282D28800B21280800AA
:10006000400EF039F7000F300805770488000000D3
:1000700008143A28081008008810F0308316880009
:10008000831208150000081400000808080E0F3934
:10009000C00008100000081400000808080E0F39FE
:1000A000BF0008100030831688008312400EF7004E
:1000B000F030F70577083F04F8007808BF00BF1B51
:1000C0003D283D1C88103D188814000008110000D0
:1000D00008103E0EBF000F30BF053F08C0003020A3
:1000E0003E080F39BF00C0003020080000308316E2
:1000F000880083128810081108100F30B9001B20E7
:100100000130AB002B08033C031C8E280330C000D9
:1001100030200530B9001B20AB0A82280230C00015
:100120003020AB012B08033C031C9F282B08042024
:10013000AC00BD012C08BE003C20AB0A92288A11FD
:100140000A12022D8E30F7002C08F8002B08F90057
:10015000FA01F808031DB6287908F800F9010830FB
:10016000F702F808031DB628F701BE280310F81B94
:10017000BD28F90DF80DF703B628F8130800380864
:1001800003192F29C0003C0803192F29C0070318A1
:10019000D0287F30C002031C2F2903192F29D4280F
:1001A0008130C00703182F294008F700F801F90132
:1001B000FA013908C400C4173A08C3003B08C2005A
:1001C0001830C000C101421CFD283F08FA07031C7B
:1001D000EF28F90A031DEF28F80A0319C1173E0892
:1001E000F907031CF628F80A0319C1173D08BA00DD
:1001F000BA173A08F8070318C117C10DF80CF90C23
:10020000FA0CC40CC30CC20C0310C00BE228013062
:10021000F70703182F29F81B1429C40DFA0DF90D3F
:10022000F80DF70303192F29C41F2529FA0A031D06
:100230002529F90A031D2529F80A031D2529F80C8B
:10024000F90CFA0CF70A03192F293908C1003D08E7
:10025000C106C11F2D29F8173329F8133329F701D7
:10026000F801F901FA0108002F080319F929BB0068
:1002700033080319F929BB02031C43297F30BB074C
:100280000318F92949298130BB02031CF9290319F4
:10029000F9293B08F700F801F901FA01BA01300821
:1002A000B900B9173108B8003208B7001930BB00DF
:1002B0003608B70203186C290130B80203186C29FC
:1002C000B90203186C29BA0203186C29BA0AB90AD0
:1002D000B80A3608B7079E293508B80203188729D7
:1002E0000130B90203188729BA0203188729BA0A0C
:1002F000B90A3508B8073608B707031C9E29B80A9B
:10030000031D9E29B90A031D9E29BA0A9E29340895
:100310008038B90203189D290130BA0203189D29BB
:10032000BA0A34088038B9073508B807031C7B2996
:10033000B90A031D7B29BA0A7B297A14BB0BA129B0
:10034000AC290310B70DB80DB90DBA0D0310FA0D95
:10035000F90DF80DBC0D58293C1CB4290310F80CFC
:10036000F90CFA0CBC0CB729F7030319F929BC1BCB
:10037000E0290310B70DB80DB90DBA0D3608B70254
:100380000318CC290130B8020318CC29B90203188C
:10039000CC29BA02031CEF293508B8020318D72963
:1003A0000130B9020318D729BA02031CEF29340817
:1003B0008038B9020318E0290130BA02031CEF2982
:1003C000FA0A031DEF29F90A031DEF29F80A031D94
:1003D000EF29F70A0319F929F80CF90CFA0C30087F
:1003E000BB003408BB06BB1FF729F817FD29F8131B
:1003F000FD29F701F801F901FA01080038080C3A63
:100400000319092A063A0319112A023A0319272A5D
:100410002C2ABD010130BE003C200230B9001B2057
:10042000312A0130B9000230BA003A0B182A1B2ACF
:100430004030BB001C2ABB0101303902BB073B081E
:100440008038BC00BD013C08BE003C20312ABD0103
:100450001030BE003C20312A0130BD003808BE00FB
:100460003C2008000B08AC008B13831603178C1775
:100470000C140000000083120313AC1B8B1703182D
:10048000692A03170C087F390313AC0003170D0802
:100490000313AD0003170F080313AE002C08B800B8
:1004A000FE212D0803178D0003132E0803178F005C
:1004B00003130B08AF008B13831603178C170C1450
:1004C0000000000083120313AF1B8B17AB0B692ACC
:1004D000882A03170C0D0E0D7F390313AC00031788
:1004E0000D080313AD0003170F080313AE002C080B
:1004F000B800FE212D0803178D0003132E080317E3
:100500008F008D0A03198F0A03100313AB0B322AD5
:1005100008003808B63CB800FA013908BC00B91721
:100520000310B90CBA0CBB0CFA0CF90CF80CF70C54
:10053000B80B902ABC1FA72AF709F809F909FA098C
:10054000F70A0319F80A0319F90A0319FA0A080045
:100550008318AD2A403084008313F701F801F901B4
:10056000FA01C001C101C201C3013F083E043D04BC
:100570003C040319EB2A2030C4000310B80DB90D58
:10058000BA0DBB0DC00DC10DC20DC30D3F08430216
:10059000031DD42A3E084202031DD42A3D0841020D
:1005A000031DD42A3C084002031CE52A3C08C00273
:1005B0003D08031C3D0FC1023E08031C3E0FC20252
:1005C0003F08031C3F0FC3020314F70DF80DF90D8C
:1005D000FA0DC40BBD2A40088000840A410880003F
:1005E000840A42088000840A430880000800040846
:1005F000B0002F08B2000319162B2E08BB002D08DF
:10060000BA002C08B9002B08B800BF01BE01203089
:10061000BD008230BC00BF207A08AE007908AD0072
:100620007808AC007708AB00B20BFD2A2E08BB009F
:100630002D08BA002C08B9002B08B80089227A08C6
:10064000AE007908AD007808AC007708AB00AE1FAB
:10065000362BB003B016AB09AC09AD09AE09AB0A35
:100660000319AC0A0319AD0A0319AE0A3B30B700EF
:100670009A30B600CA30B500B4010A30B2002F0873
:100680000319B00A83142B30840083132E08BB0097
:100690002D08BA002C08B9002B08B8003708BF0095
:1006A0003608BE003508BD003408BC00A822780812
:1006B000F708031D6E2B2F0A320203196E2B300828
:1006C0000319702B0F3932020319682B0318A02B62
:1006D000B01BA02B301B702B20309C2B2030B00582
:1006E000B01E7E2BB0122F08031DB0037708B00098
:1006F0002D30B800FE213008F700B0012F0832027B
:10070000031D8C2B7708B0002E30B800FE21300876
:10071000F7002030B00500303030B01E9C2BB012F6
:100720002F08031DB0037708B0002D30B800FE215C
:100730003008F700B0013030F7077708B800FE2125
:1007400083103708BB003608BA003508B9003408F2
:10075000B800BF01BE01BD010A30BC00A8227A0862
:10076000B7007908B6007808B5007708B400B20B76
:10077000422B0800B3010408B2003310831B33146A
:100780002C0EF038AE00AE07E23EAF00323EB100B4
:100790002C080F39AF07AF07B107E93EB000B0072B
:1007A000B0072B0E0F39B007B107B00DB10DB1096D
:1007B000B10D2B080F39B107AE0D0730AD000A306F
:1007C000B107B003031CE02BB007AF03031CE42BFD
:1007D000AF07AE03031CE82BAE07AD03031CEC2BE5
:1007E0002D308400831307303205321384073130F3
:1007F0000402031932170008F700031D072C321BEF
:10080000072C321A0F2CB219072C20300A2CB215E3
:1008100032123030F70777080C1E0C2C9900840A2E
:10082000321FF72B8A110A12C92D0408B0002F08B5
:10083000B2000319342C2E08BB002D08BA002C0876
:10084000B9002B08B800BF01BE012030BD008230C6
:10085000BC00BF207A08AE007908AD007808AC0073
:100860007708AB00B20B1B2C2E08BB002D08BA007A
:100870002C08B9002B08B80089227A08AE00790844
:10088000AD007808AC007708AB00AE1F542CB00365
:10089000B016AB09AC09AD09AE09AB0A0319AC0A35
:1008A0000319AD0A0319AE0A3B30B7009A30B600FF
:1008B000CA30B500B4010A30B2002F080319B00ADB
:1008C00083142B30840083132E08BB002D08BA003C
:1008D0002C08B9002B08B8003708BF003608BE0046
:1008E0003508BD003408BC00A8227808F708031DAD
:1008F0008C2C2F0A320203198C2C300803198E2CF1
:100900000F3932020319862C0318C22CB01BC22CDB
:10091000301B8E2C2030BD2C2030B005B01E9D2CFD
:10092000B0122F08031DB0037708B0002D300C1E45
:10093000972C99003008F700B0012F083202031DF0
:10094000AC2C7708B0002E300C1EA42C9900300877
:10095000F7002030B00500303030B01EBD2CB01292
:100960002F08031DB0037708B0002D300C1EB62CE5
:1009700099003008F700B0013030F70777080C1EF7
:10098000BF2C990083103708BB003608BA00350821
:10099000B9003408B800BF01BE01BD010A30BC0077
:1009A000A8227A08B7007908B6007808B500770859
:1009B000B400B20B602C080003081F3983006130BB
:1009C00083168F000F088312A00183160317871167
:1009D000193003139900A6309800903083129800C4
:1009E000831603170908C039890003131F129F12C9
:1009F000003003178800831287018801890183135F
:100A000003137628831603170908C03989000313D6
:100A10001F129F12013003178800831203131F1740
:100A20009F1783169F1383121F149F149F18162D50
:100A3000A2011E08A1002208AC002108AB00A220E0
:100A40007A08AE007908AD007808AC007708AB00F2
:100A50007A08BB007908BA007808B9007708B800AE
:100A6000BF01BE010730BD008730BC00BF207A083F
:100A7000AE007908AD007808AC007708AB007A08C2
:100A8000B2007908B1007808B0007708AF00B6016D
:100A9000B5017F30B4008630B30034217A08AA0053
:100AA0007908A9007808A8007708A7002208AC00F8
:100AB0002108AB00A2207A08AE007908AD007808C2
:100AC000AC007708AB007A08BB007908BA00780858
:100AD000B9007708B800BF01BE012030BD008130E9
:100AE000BC00BF207A08AE007908AD007808AC00E1
:100AF0007708AB007A08B2007908B1007808B00036
:100B00007708AF00B601B5017F30B4008630B3007E
:100B100034217A08A6007908A5007808A40077088F
:100B2000A3000C3003178D0000308F000310093034
:100B30000313AB003222893084002608AE0025085A
:100B4000AD002408AC002308AB000230AF00F72250
:100B5000143003178D0000308F000310083003138A
:100B6000AB003222023084002A08AE002908AD0012
:100B70002808AC002708AB000230AF00F722643031
:100B8000B9001B20103084002208AC002108AB0003
:100B9000BA2B2C300C1ECA2D9900893084002608EF
:100BA000AE002508AD002408AC002308AB000230DD
:100BB000AF0015242C300C1EDB2D99000230840070
:100BC0002A08AE002908AD002808AC002708AB00B1
:100BD0000230AF0015240A300C1EEC2D99000D30A8
:0A0BE0000C1EF02D9900152D630086
:04400E00A42CFF3FA0
:00000001FF
;PIC16F887
;CRC=704A  CREATED="26-abr.-22 14:44"
